:1000000075B0FF75900075901B1200B080F87529CF
:10001000FF752A40752B10752C40752DFF22752910
:10002000FF752A91752B91752C91752D00227529DC
:10003000FF752A80752B80752C80752D802275297F
:100040007D752A83752B83752C83752D7D227529EB
:100050007D752A83752B83752C83752D7D227529DB
:10006000FF752A07752B19752C03752DFF22AE29F4
:10007000120087AE2A120087AE2B120087AE2C1218
:100080000087AE2D12008785393A85383985373893
:100090008536378535368534358533348532338E2C
:1000A00032227C05116EDCFC22C2B0D2B0C2B0227A
:0A00B0007916781600D8FDD9F92260
:00000001FF
