:100000007590FF740E743811F912012312012374D4
:100010000E11F9120123120123740111F9120123A7
:10002000120123740611F9120123120123748011A5
:10003000F91201231201237454310612012374486A
:10004000310612012374493106120123745331061B
:10005000120123741411F91201237449310612019B
:100060002374533106120123741411F912012374FD
:10007000453106120123744C3106120123744431B8
:100080000612012374493106120123740111F91279
:10009000012374C011F91201231201237455310692
:1000A000120123741411F912012374413106120153
:1000B0002374523106120123744531061201237450
:1000C0001411F912012374573106120123744531BA
:1000D00006120123744C31061201237443310612B7
:1000E0000123744F3106120123744D31061201238E
:1000F0007445310612012301053113F590C2A0C2E7
:10010000A1D2A2C2A2223113F590D2A0C2A1D2A242
:10011000C2A222D297C2A0D2A1D2A2C2A260FA30B9
:0D01200097F72278FF79FF00D9FDD8F9226A
:00000001FF
